:1000000028C842C841C840C83FC83EC83DC83CC8CF
:100010003BC83AC839C838C837C836C835C80003DD
:10002000050911FF118905C300E000F000F8000088
:1000300000000000004428FF11AA44000000000056
:1000400000000000000000000000000000000000B0
:1000500000000000000000000000000000000000A0
:100060000000000000000000000000000000000090
:100070000000000000000000830138448292927466
:100080000183000000000000007C44FF017D7D7DB5
:10009000017D7D7D7D017D7D7D7D7D01FF000000F9
:1000A000000000010001000100010001000100004A
:1000B000000000000000000101000000000000003E
:1000C0000000000000000000000000000000000030
:1000D0000000000000000000000000000000000020
:1000E0000000000000000000000000000000000010
:1000F00000000000000000000101000000000000FE
:1001000001010000000000000000000101010101E8
:1001100001010101010101010101010101000000D2
:1001200000000000000000000000000000000000CF
:10013000000000000000000000003F3F0303F31335
:1001400011111111111101F111618101010181617F
:1001500011F1010101014141F10101010101C1213F
:100160001111111121C1010101014141F1010101EF
:10017000010101010101011111111111D333030317
:100180003F3F0000000000000000000000000000F1
:10019000000000000000000000000000000000005F
:1001A000000000000000000000000000000000004F
:1001B00000000000000000000000E0E000007F01FF
:1001C000010101010100007F000001061806010085
:1001D000007F0000000040407F40400000001F20E2
:1001E00040404040201F0000000040407F40400051
:1001F000000000600000000040300C030000000020
:10020000E0E000000000000000000000000000002E
:1002100000000000000000000000000000000000DE
:1002200000000000000000000000000000000000CE
:100230000000000000000000000007070606060698
:1002400004040484444444840404844444448404EE
:10025000040484C40404040484444444840404045E
:10026000040484444444840404040404844444444E
:1002700084040484444444840404040406060606F6
:100280000707000000000000000000000000000060
:10029000000000000000000000000000000000005E
:1002A000000000000000000000000000000000004E
:1002B000000000000000000000000000000000003E
:1002C000000000101814121100000F1010100F0081
:1002D0000000101F10000000081012120D0000187E
:1002E00000000D1212120D00001800001018141258
:1002F000110000101814121100000000000000008E
:1003000000000000000000000000000000000000ED
:1003100000000000000000000000000000000000DD
:1003200000000000000000000000000000000000CD
:1003300000000000000000000000000000000000BD
:1003400000000000000000000000000000000000AD
:10035000000000000000000000008080808080809D
:10036000808000000000000000000000000000008D
:10037000000000000000000000000000000000007D
:10038000000000000000000000000000000000006D
:100390000000000000000000000000000000007FDE
:1003A000030C300C037F00003854545800007C04C8
:1003B000047800003C40407C000000000000000089
:1003C000000000000000000000000000000000002D
:1003D00000000000000000000000FFAAAAAA2808F0
:1003E00000FF00000000000000000000000000000E
:1003F00000000000000000000000000000000000FD
:10040000000000000000007F030C300C037F0000A0
:10041000264949493200007F020408107F0000008D
:1004200000007C6C64606060600000000000000000
:1004300000000000000000000000000000000000BC
:1004400000F0F8181818181898989898181818188C
:10045000181818181818181818189898989898981C
:10046000989898989898989898989898989898980C
:1004700098989898989898989818181818181898FC
:100480009898981818181818F0000000000000003C
:10049000000000000000000000000000000000005C
:1004A000000066666666666E7C000000000000E084
:1004B000F03030303030303030303030303030307C
:1004C000303F3F00003C42810000000081423C0080
:1004D000000054AA54AA540000FFFF011D151D017D
:1004E00001011D151D0101011D151D0101011D1534
:1004F0001D0101011D151D0101FF00003C4281008D
:1005000000000081423C0000FF00000000000000ED
:1005100000000000000000000000000000000000DB
:1005200000003C26063E66663A000000000000FF20
:10053000FF000000081C141C0000081C141C000014
:1005400000000000000000000101010100000000A7
:100550000000050A050A0500000F1F1017151710E7
:100560001010171517101010171517101010171559
:100570001710101017151710101F000000000001B1
:100580000101010000000000FF0000000000000069
:10059000000000000000000000000000000000005B
:1005A00000003E62607E06467C000000000000FF06
:1005B000FF00000082C745C7000082C745C7000092
:1005C000000000000000000000000000000000002B
:1005D00000A854AA55AA55AA55AA54A8000000AAD2
:1005E00055AA55AA55AA55AA55AA55AA55AA55AA13
:1005F00055AA55AA55AA55AA55AA00000000A85404
:10060000A854A854A8000000FF000000000000004B
:1006100000000000000000000000000000000000DA
:10062000000066666666666E7C000000000000FFE3
:10063000FF00000020715171000020715171000015
:1006400000000000000000000000000000000000AA
:100650000040A142A542A542A542A140000000AA37
:1006600055AA55AA55AA55AA55AA55AA55AA55AA92
:1006700055AA55AA55AA55AA55AA000000002A5500
:100680002A552A552A000000FF0000000000000043
:10069000000000000000000000000000000000005A
:1006A00000003E7666666666660000000000000F89
:1006B0003F408000081C141C0000081C141C000093
:1006C000000000000000000000000000000000002A
:1006D00000A142A142A10201A241A241A00000E06A
:1006E000F130B1B0B1303130B1B0B1303130B1B042
:1006F000B1303130B1B0B13031E000000000000065
:100700000000000000000000FF00000000000000EA
:1007100000000000000000000000000000000000D9
:10072000C0CC001E0C0C0C0C1E00000000000000D1
:100730000000000102040808080808080808080862
:1007400008F8F800007884020101010102847800B1
:1007500000AA55AA55AA0000AA55AA55AA0000FF4A
:10076000FF00E3A2E3000000E3A2E3000000E3A235
:10077000E3000000E3A2E30000FF00007884020130
:100780000101010284780000FF0000000000000069
:100790000000000000000000000000000000000059
:1007A0003F360606060606060F00000000000000A1
:1007B0000000000000000000000000000000000039
:1007C000000F1F1010101011121212121110101021
:1007D0001012111211121010121112111210101108
:1007E00013121212121212121212121212121212E8
:1007F00012121212121212121213101010101112E1
:1008000012121211101010101F0000000000000042
:1008100000000000000000000000000000000000D8
:10082000000000000000002F00000000070007008B
:1008300000147F147F1400242A7F2A1200626408A7
:100840001323003649552250000005030000000024
:100850001C224100000041221C000014083E081424
:100860000008083E0808000000A060000008080812
:100870000808000060600000002010080402003E2C
:100880005149453E0000427F4000004261514946C7
:10089000002141454B31001814127F1000274545B7
:1008A0004539003C4A4949300001710905030036C9
:1008B0004949493600064949291E000036360000DC
:1008C00000005636000000081422410000141414E1
:1008D00014140000412214080002015109060032DC
:1008E0004959513E007C1211127C007F494949361A
:1008F000003E41414122007F4141221C007F494985
:100900004941007F09090901003E4149497A007FB8
:100910000808087F0000417F4100002040413F015E
:10092000007F08142241007F40404040007F020CBD
:10093000027F007F0408107F003E4141413E007F5E
:1009400009090906003E4151215E007F0919294627
:100950000046494949310001017F0101003F404003
:10096000403F001F2040201F003F4038403F0063B1
:1009700014081463000708700807006151494543D3
:1009800000007F41410000552A552A550000414191
:100990007F0000040201020400404040404000008B
:1009A00001020400002054545478007F4844443825
:1009B00000384444442000384444487F00385454AC
:1009C000541800087E0901020018A4A4A47C007F2A
:1009D000080404780000447D4000004080847D00CD
:1009E000007F102844000000417F4000007C041874
:1009F0000478007C0804047800384444443800FC3F
:100A0000242424180018242418FC007C080404085A
:100A100000485454542000043F444020003C4040CF
:100A2000207C001C2040201C003C4030403C004406
:100A300028102844001CA0A0A07C004464544C440E
:100A4000141414141414AE2000B0C8001040813FD8
:100A5000A1A6A83FA4D300D5F0D922DA12DB208DBD
:100A600014AF0000000000000000000000000000C3
:100A70000000000000F8000000000000003330001B
:100A8000000000100C06100C060000000000000022
:100A9000000040C07840C0784000043F04043F0498
:100AA0000400007088FC08300000001820FF211EA0
:100AB0000000F008F000E018000000211C031E21D7
:100AC0001E0000F00888700000001E212324192752
:100AD000211010160E0000000000000000000000B1
:100AE0000000000000E018040200000000071820C9
:100AF000400000020418E000000000402018070039
:100B00000000404080F0804040000202010F0102DE
:100B10000200000000F0000000000101011F0101BF
:100B20000100000000000000000080B07000000024
:100B300000000000000000000000000101010101B0
:100B40000101000000000000000000303000000043
:100B5000000000000000806018040060180601001A
:100B6000000000E010080810E000000F1020201026
:100B70000F00001010F8000000000020203F20208F
:100B80000000007008080888700000302824222126
:100B900030000030088888483000001820202011DC
:100BA0000E000000C02010F8000000070424243FBD
:100BB000240000F808888808080000192120201166
:100BC0000E0000E0108888180000000F112020118E
:100BD0000E0000380808C83808000000003F000078
:100BE00000000070880808887000001C2221212263
:100BF0001C0000E010080810E00000003122221163
:100C00000F00000000C0C0000000000000303000F5
:100C10000000000000800000000000008060000074
:100C200000000000804020100800000102040810AD
:100C300020004040404040404000040404040404BC
:100C4000040000081020408000000020100804026A
:100C50000100007048080808F0000000003036016C
:100C60000000C030C828E810E0000718272423142B
:100C70000B000000C038E0000000203C23020227E7
:100C8000382008F8888888700000203F2020201134
:100C90000E00C0300808080838000718202020106F
:100CA000080008F808080810E000203F2020201065
:100CB0000F0008F88888E8081000203F2020232033
:100CC000180008F88888E8081000203F200003007A
:100CD0000000C03008080838000007182020221E35
:100CE000020008F808000008F808203F210101214F
:100CF0003F20000808F8080800000020203F2020BE
:100D0000000000000808F8080800C08080807F000C
:100D1000000008F888C028180800203F2001263865
:100D2000200008F8080000000000203F20202020BC
:100D3000300008F8F800F8F80800203F003F003FB6
:100D4000200008F830C00008F808203F20000718ED
:100D50003F00E01008080810E0000F1020202010CD
:100D60000F0008F808080808F000203F21010101E1
:100D70000000E01008080810E0000F182424385084
:100D80004F0008F8888888887000203F2000030CF6
:100D900030200070880808083800003820212122FF
:100DA0001C00180808F8080818000000203F200060
:100DB000000008F808000008F808001F2020202084
:100DC0001F000878880000C83808000007380E01A6
:100DD0000000F80800F80008F800033C0700073C92
:100DE0000300081868808068180820302C03032C42
:100DF00030200838C800C83808000000203F200014
:100E0000000010080808C8380800203826212020D3
:100E10001800000000FE020202000000007F4040B7
:100E20004000000C30C00000000000000001063847
:100E3000C00000020202FE000000004040407F00AF
:100E40000000000004020202040000000000000094
:100E50000000000000000000000080808080808092
:100E6000808000020204000000000000000000007A
:100E700000000000808080800000001924222222CF
:100E80003F2008F8008080000000003F1120201162
:100E90000E000000008080800000000E1120202045
:100EA0001100000000808088F800000E1120201042
:100EB0003F200000808080800000001F222222222C
:100EC0001300008080F0888888180020203F2020B0
:100ED00000000000808080808000006B94949493D8
:100EE000600008F8008080800000203F2100002082
:100EF0003F2000809898000000000020203F202024
:100F00000000000000809898000000C08080807F72
:100F1000000008F8000080808000203F24022D306F
:100F20002000000808F8000000000020203F2020DA
:100F300000008080808080808000203F20003F2053
:100F4000003F8080008080800000203F2100002042
:100F50003F200000808080800000001F2020202093
:100F60001F00808000808000000080FFA1202011F1
:100F70000E000000008080808000000E112020A064
:100F8000FF80808080008080800020203F21200022
:100F9000010000008080808080000033242424240D
:100FA0001900008080E0808000000000001F2020E9
:100FB00000008080000000808000001F20202010A2
:100FC0003F20808080000080808000010E30080675
:100FD000010080800080008080800F300C030C3086
:100FE0000F0000808000808080000020312E0E31B4
:100FF0002000808080000080808080818E701806B4
:10100000010000808080808080000021302C22211F
:10101000300000000000807C020200000000003F61
:10102000404000000000FF00000000000000FF0042
:1010300000000002027C800000000040403F0000F1
:10104000000000060101020204040000000000008C
:10105000000011241FBECFE5D2E0DEBFCDBF10E0FF
:10106000A0E6B0E0E8EBF5E102C005900D92A23FEA
:10107000B107D9F710E0A2EFB0E001C01D92A83F80
:10108000B107E1F702D096C2BBC7AF92BF92CF9231
:10109000DF92FF920F931F93CF93DF9380E197E24C
:1010A0000197F1F71BD10FEF10E099E1C92ED12C78
:1010B00088EAA82E81E6B82E0FC0802F90E0012E7E
:1010C00002C0959587950A94E2F7082F809546D13E
:1010D000C5010197F1F71F5F153078F380E197E2C2
:1010E000F6013197F1F70197D9F78AEA65E51BD147
:1010F0008AEA65E518D100E010E0FF2480E06F2D5A
:10110000FED0C801E80127968C010F5F1F4F93D1D5
:1011100080E690E041D1C8010C171D07A9F7F394B0
:1011200028E0F21659F780E49CE9F6013197F1F7CF
:101130000197D9F78AEA65E5F6D007EC10E0FF24BD
:10114000F3948AE06F2DDBD0C80168D180E690E08F
:1011500023D1C801895C9D4F61D180E690E01CD10C
:10116000C80182599B4F5AD180E690E015D10B55AA
:10117000194FF39487E0F81621F780E49CE9F60113
:101180003197F1F70197D9F78AEA65E5CCD000E00D
:1011900010E0FF248CE263E0B2D082E690E0FCD065
:1011A000C8013CD18CE264E0AAD085E690E0F4D09E
:1011B000C8018095909532D1C80163E070E0D4D128
:1011C00061E270E0E3D16F5F7F4F060F171FF3946A
:1011D00023EAF216F9F680E29EE4F6013197F1F780
:1011E0000197D9F780E0BAD080E061E088D088E646
:1011F00090E0D2D080E460E043E750E02CD180E082
:1012000063E07DD08CE790E0C7D08DE067E077D0D9
:1012100083ED90E0C1D080E69AEEF6013197F1F7C8
:101220000197D9F780E060E040E828E00EE114E0A3
:10123000BFD080E49CE9F6013197F1F70197D9F727
:1012400080E060E040E828E00EE110E0B1D080E608
:101250009AEEF6013197F1F70197D9F70FEF10E009
:101260002CCFC29AC09AC098C2980895C298C098CC
:10127000C29AC09A089520E030E0482F50E0CA0199
:10128000022E02C0880F991F0A94E2F787FF02C05E
:10129000C09A01C0C098C29AC2982F5F3F4F2830B1
:1012A000310569F7C09AC29AC2980895DADF88E7D3
:1012B000E2DF80E0E0DF0895D9DF08951F93182F63
:1012C000F5DF812FD8DFD2DF1F910895CADF88E7CD
:1012D000D2DF80E4D0DF0895C9DF0895CF93DF9394
:1012E000B89ABA9AC6E4DAE0FE018491E7DF219663
:1012F000FAE0C236DF07C1F7DF91CF9108950F936F
:101300001F93082F162FD2DF812F8055B4DF802F37
:1013100082958F708061AFDF802F8F70ACDFA6DF8A
:101320001F910F9108950F931F93CF93DF93082F71
:10133000162F80E060E0E3DFC9DFC0E0D0E0802F5F
:101340009ADF812F98DF219682E0C030D807B9F765
:101350008DDFDF91CF911F910F910895682FE3DF0B
:1013600008951F93CF93DF93182FB0DF812F805202
:1013700090E066E070E0F8D0EC01C25ED74F10E07C
:10138000FE01849178DF1F5F21961630C9F76EDF6A
:10139000DF91CF911F910895CF93DF93EC0102C0AD
:1013A0002196DFDF88818823D9F7DF91CF910895D7
:1013B0009F92AF92BF92CF92DF92EF92FF920F93E4
:1013C0001F93CF93DF93B82E942EA22E6801062F81
:1013D000EE24FF2415C08B2D602F91DF77DFE6010F
:1013E000CE0DDF1D1B2D08C00894E11CF11CFE0171
:1013F000849141DF1F5F21961915B0F337DF0F5F2E
:101400000A1548F3DF91CF911F910F91FF90EF9054
:10141000DF90CF90BF90AF909F9008950F931F9350
:101420001092F70002EF10E0B8016AD0C801B4DFF3
:101430001F910F9108950F931F931092F70002EFE1
:1014400010E0B8015DD09801280F311DC901A4DF5B
:101450001F910F910895AF92BF92CF92DF92EF92BA
:10146000FF920F931F93CF93DF93E82ED62E5A014E
:10147000CC2434C01E2F105288E78E1510F4D3945C
:10148000EE248E2D6D2D3BDF21DF012F10E084E057
:10149000000F111F8A95E1F7E801CE59D54FFF24BF
:1014A000FE018491E8DEF3942196F8E0FF16C1F77F
:1014B00013DF6D2D6F5F8E2D22DF08DFE801C65927
:1014C000D54F0E58154FFE018491D5DE2196C017D9
:1014D000D107C9F701DFF8E0EF0EC394F501EC0D79
:1014E000F11DE081EE2309F0C5CFDF91CF911F916F
:1014F0000F91FF90EF90DF90CF90BF90AF90089545
:101500000F931F93CF93DF938B01C7EED0E034E0AE
:1015100040E050E01AC02F5F8A0F9B1F8E179F0775
:10152000D0F7343039F4222311F0362F03C0643061
:1015300009F020EFF801E40FF51F205D20834F5FD5
:101540005F4F22964530510549F0642FE881F981BB
:1015500020E0AA27BB27AE1BBF0BE0CF832FDF9174
:10156000CF911F910F9108955527002480FF02C04D
:10157000060E571F660F771F6115710521F09695AE
:101580008795009799F7952F802D0895AA1BBB1B6F
:1015900051E107C0AA1FBB1FA617B70710F0A61B73
:1015A000B70B881F991F5A95A9F780959095BC0194
:0815B000CD010895F894FFCF6E
:1015B8002000613D00623D00546861742773207407
:1015C80068650054696E75736175720054686520AA
:1015D800706C6174666F726D2074686174206769DD
:1015E80076657320796F7520657665727974686998
:1015F8006E6720796F75206E65656420666F72204E
:10160800796F7572206669727374206D6963726F81
:10161800636F6E74726F6C6C65722070726F6A653E
:10162800637400687474703A2F2F74696E757361EF
:1016380075722E6F7267001027E80364000A0001B4
:021648000000A0
:00000001FF
