:1000000030C14AC149C148C147C146C145C144C1C7
:1000100043C142C141C140C13FC13EC13DC10000D9
:10002000000000000000002F000000000700070093
:1000300000147F147F1400242A7F2A1200626408AF
:10004000132300364955225000000503000000002C
:100050001C224100000041221C000014083E08142C
:100060000008083E0808000000A06000000808081A
:100070000808000060600000002010080402003E34
:100080005149453E0000427F4000004261514946CF
:10009000002141454B31001814127F1000274545BF
:1000A0004539003C4A4949300001710905030036D1
:1000B0004949493600064949291E000036360000E4
:1000C00000005636000000081422410000141414E9
:1000D00014140000412214080002015109060032E4
:1000E0004959513E007C1211127C007F4949493622
:1000F000003E41414122007F4141221C007F49498D
:100100004941007F09090901003E4149497A007FC0
:100110000808087F0000417F4100002040413F0166
:10012000007F08142241007F40404040007F020CC5
:10013000027F007F0408107F003E4141413E007F66
:1001400009090906003E4151215E007F091929462F
:100150000046494949310001017F0101003F40400B
:10016000403F001F2040201F003F4038403F0063B9
:1001700014081463000708700807006151494543DB
:1001800000007F41410000552A552A550000414199
:100190007F00000402010204004040404040000093
:1001A00001020400002054545478007F484444382D
:1001B00000384444442000384444487F00385454B4
:1001C000541800087E0901020018A4A4A47C007F32
:1001D000080404780000447D4000004080847D00D5
:1001E000007F102844000000417F4000007C04187C
:1001F0000478007C0804047800384444443800FC47
:10020000242424180018242418FC007C0804040862
:1002100000485454542000043F444020003C4040D7
:10022000207C001C2040201C003C4030403C00440E
:1002300028102844001CA0A0A07C004464544C4416
:10024000141414141414AE2000B0C8001040813FE0
:10025000A1A6A83FA4D300D5F0D922DA12DB208DC5
:1002600014AF11241FBECFE5D2E0DEBFCDBF11E039
:10027000A0E6B0E0E0E9F6E002C005900D92AA31F8
:10028000B107D9F721E0AAE1B1E001C01D92A33284
:10029000B207E1F79CD1FAC1B3CEB89ABA9AC29A22
:1002A000C09AC098C2980895C298C098C29AC09A3D
:1002B000B898089520E030E090E0AC01022E01C033
:1002C000440F0A94EAF747FF02C0C09A01C0C098E1
:1002D000C29AC2982F5F3F4F2830310571F7C09AFC
:1002E000C29AC2980895D9DF88E7E4DF80E0E2CFC0
:1002F000D4DF88E7DFDF80E4DDCFDCCFD5CF1F930D
:10030000CF93DF93F0DFC6E4D2E01C2F145EFE0132
:100310008491D0DF21961C13FACFDF91CF911F91EA
:10032000C3CF1F93CF93DF931F92CDB7DEB7182FA4
:100330006983D9DF6981862F8770806BBBDF812F4E
:100340008F70B8DF812F82958F708061B3DF0F903F
:10035000DF91CF911F91A8CFEF92FF920F931F9340
:10036000CF93DF93E82EF62E042F122F60E080E06B
:10037000D8DFBEDFC0E0D1E08E2D9CDF8F2D9ADF6D
:10038000802F98DF812F96DF2197B1F7DF91CF91F2
:100390001F910F91FF90EF9087CF90932201809350
:1003A0002101609320010895EF92FF920F931F9314
:1003B000CF93DF931F92CDB7DEB7898399DF898111
:1003C000805290E066E070E050D18C01E12CF12C7D
:1003D0009701200F311FE0912101F0912201E20FDE
:1003E000F31F84918ADF8FEFE81AF80A86E0E81697
:1003F000F10471F70F90DF91CF911F910F91FF9052
:10040000EF907CCFCF93DF93EC018991882311F09B
:10041000CBDFFBCFDF91CF91089510921F016AE1EE
:1004200071E069D090E0865E9E4FECCF10921F0184
:100430006AE171E060D08AE191E0E4CF8F929F920F
:10044000BF92CF92DF92EF92FF920F931F93CF93C1
:10045000DF936C01162F042F7901B12CF701EB0DFE
:10046000F11DC081CC2309F43AC0C052193710F0F5
:100470000F5F10E0602F812F54DF3ADFD0E084E07F
:10048000CC0FDD1F8A95E1F7812C912CF401EC0F44
:10049000FD1FEC0DFD1D849130DF8FEF881A980A47
:1004A00088E08816910491F729DF61E0600F812FC1
:1004B00038DF1EDF812C912C2896FE01E80DF91DF6
:1004C000EC0DFD1D849119DF8FEF881A980A88E0E2
:1004D0008816910491F712DF185FB394BFCFDF91B4
:1004E000CF911F910F91FF90EF90DF90CF90BF9031
:1004F0009F908F900895CF93DF93CDB7DEB72A9763
:100500000FB6F894DEBF0FBECDBFAC018AE0E0E6C7
:10051000F0E0DE01119601900D928A95E1F7FE015F
:100520003196DB0120E084E06191719190E0461703
:10053000570720F09F5F461B570BF9CF843039F4E3
:10054000911104C0243011F090EF01C0822F905D12
:100550009D932F5F253041F72A960FB6F894DEBFA2
:100560000FBECDBFDF91CF910895AC01FB01339653
:1005700024E0942F9F709A3010F4905D01C0995C34
:10058000908384E0569547958A95E1F721503197FD
:100590002111EFCF84E00895FC0120E08FE040E0DE
:1005A00050E8E417F50730F0E41BF50B8F3021F429
:1005B000822F02C090E001C091E0905DDB019D932D
:1005C000BD01569547952F5F203159F70895F8944E
:1005D00080E886BD16BC78942FEF89EF90E021501B
:1005E00080409040E1F700C0000089DE60E28EE1CB
:1005F00090E0D3DE20E040E060E080E0ADDE20E08F
:1006000040E860E080E8A8DE2FEF84E39CE0215022
:1006100080409040E1F700C0000060E080E081DEB3
:100620008AE690E0EFDE61E087E07BDE80E890E044
:10063000E9DE62E080E075DE84E990E0E3DE66E01A
:1006400080E06FDE80EF90E0DDDE67E087E069DE6E
:1006500086E091E0D7DE2FEF8FE493EC21508040CD
:100660009040E1F700C00000C5CF0024552704C02A
:10067000080E591F880F991F009729F076956795E6
:10068000B8F37105B9F7802D952F0895F894FFCF31
:100690001027E80364000A00010048656C6C6F2CA9
:1006A00020576F726C64212054657374696E670003
:1006B00053534431333036784C4544204C69627290
:1006C000617279002122232425262728292A2B2C10
:1006D0002D2E2F303132333435363738393A3B3CD2
:1006E0003D3E3F404142434445464748494A4B4CC2
:1006F0004D4E4F505152535455565758595A5B35D9
:100700005D5E5F606162636465666768696A6B6CA1
:100710006D6E6F707172737475767778797A7E000A
:100720002054686973206973207468652054494EA9
:10073000555355522000687474703A2F2F74696EA7
:0A07400075736175722E6F72670009
:00000001FF
