:1000000030C14AC149C148C147C146C145C144C1C7
:1000100043C142C141C140C13FC13EC13DC10000D9
:10002000000000000000002F000000000700070093
:1000300000147F147F1400242A7F2A1200626408AF
:10004000132300364955225000000503000000002C
:100050001C224100000041221C000014083E08142C
:100060000008083E0808000000A06000000808081A
:100070000808000060600000002010080402003E34
:100080005149453E0000427F4000004261514946CF
:10009000002141454B31001814127F1000274545BF
:1000A0004539003C4A4949300001710905030036D1
:1000B0004949493600064949291E000036360000E4
:1000C00000005636000000081422410000141414E9
:1000D00014140000412214080002015109060032E4
:1000E0004959513E007C1211127C007F4949493622
:1000F000003E41414122007F4141221C007F49498D
:100100004941007F09090901003E4149497A007FC0
:100110000808087F0000417F4100002040413F0166
:10012000007F08142241007F40404040007F020CC5
:10013000027F007F0408107F003E4141413E007F66
:1001400009090906003E4151215E007F091929462F
:100150000046494949310001017F0101003F40400B
:10016000403F001F2040201F003F4038403F0063B9
:1001700014081463000708700807006151494543DB
:1001800000007F41410000552A552A550000414199
:100190007F00000402010204004040404040000093
:1001A00001020400002054545478007F484444382D
:1001B00000384444442000384444487F00385454B4
:1001C000541800087E0901020018A4A4A47C007F32
:1001D000080404780000447D4000004080847D00D5
:1001E000007F102844000000417F4000007C04187C
:1001F0000478007C0804047800384444443800FC47
:10020000242424180018242418FC007C0804040862
:1002100000485454542000043F444020003C4040D7
:10022000207C001C2040201C003C4030403C00440E
:1002300028102844001CA0A0A07C004464544C4416
:10024000141414141414AE2000B0C8001040813FE0
:10025000A1A6A83FA4D300D5F0D922DA12DB208DC5
:1002600014AF11241FBECFE5D2E0DEBFCDBF11E039
:10027000A0E6B0E0E8EAF6E002C005900D92AA31EF
:10028000B107D9F721E0AAE1B1E001C01D92A43283
:10029000B207E1F7A6D106C2B3CEC29AC09AC098FF
:1002A000C2980895C298C098C29AC09A089520E052
:1002B00030E090E0AC01022E01C0440F0A94EAF74E
:1002C00047FF02C0C09A01C0C098C29AC2982F5F6F
:1002D0003F4F2830310571F7C09AC29AC2980895ED
:1002E000DCDF88E7E4DF80E0E2CFDCCFCF93DF9391
:1002F0001F92CDB7DEB78983F3DF8981D8DF0F90F6
:10030000DF91CF91CFCFC9DF88E7D1DF80E4CFCFB6
:10031000C9CF1F93CF93DF93B89ABA9AC6E4D2E0BD
:100320001C2F145EFE018491E1DF21961C13FACF8D
:10033000DF91CF911F9108951F93CF93DF931F9269
:10034000CDB7DEB7182F6983CBDF698180EB860FCD
:10035000AEDF812F82958F708061A9DF812F8F7032
:10036000A6DF0F90DF91CF911F919CCFEF92FF926C
:100370000F931F93CF93DF93E82EF62E042F122FA7
:1003800060E080E0D9DFBFDFC0E0D1E08E2D8FDFFD
:100390008F2D8DDF802F8BDF812F89DF2197B1F7A4
:1003A000DF91CF911F910F91FF90EF907BCFCF9373
:1003B000DF931F92CDB7DEB78983A5DF898177DF11
:1003C0000F90DF91CF916ECF08950F931F93CF932E
:1003D000DF93C82F98DF80EE8C0F90E066E070E02E
:1003E00050D18C01C0E0D0E09E01200F311FE09180
:1003F0001C01F0911D01E20FF31F849190E057DF83
:100400002196C630D10581F7DF91CF911F910F91D1
:100410007FCFCF93DF93EC018991882311F0D5DF53
:10042000FBCFDF91CF910895109223016EE171E02F
:100430006CD090E0825E9E4FECCF109223016EE173
:1004400071E063D08EE191E0E4CFAF92BF92DF9292
:10045000EF92FF920F931F93CF93DF93182F062FE6
:100460007A01D12CF701ED0DF11DC081CC2309F4E7
:1004700042C0C052193710F00F5F10E0602F812F7B
:100480005BDF41DFD0E084E0CC0FDD1F8A95E1F730
:10049000A12CB12CC5018C0F9D1FE0911A01F09188
:1004A0001B01E80FF91F849190E001DF8FEFA81A7C
:1004B000B80A88E0A816B10469F72ADF61E0600F86
:1004C000812F3ADF20DF5E0188E0A80EB11C609624
:1004D000E0911A01F0911B01EA0DFB1D849190E05F
:1004E000E6DE8FEFA81AB80AAC16BD0689F710DF52
:1004F000185FD394B7CFDF91CF911F910F91FF90E9
:10050000EF90DF90BF90AF900895CF93DF93CDB77A
:10051000DEB72A970FB6F894DEBF0FBECDBFAC0191
:100520008AE0E0E6F0E0DE01119601900D928A95F6
:10053000E1F7FE013196DB0120E084E061917191E9
:1005400090E04617570720F09F5F461B570BF9CFE7
:10055000843039F4911104C0243011F090EF01C0BF
:10056000822F905D9D932F5F253041F72A960FB61D
:10057000F894DEBF0FBECDBFDF91CF910895AC01DF
:10058000FB01339624E0942F9F709A3010F4905D15
:1005900001C0995C908384E0569547958A95E1F770
:1005A000215031972111EFCF84E00895FC0120E024
:1005B0008FE040E050E8E417F50730F0E41BF50B5E
:1005C0008F3021F4822F02C090E001C091E0905D55
:1005D000DB019D93BD01569547952F5F203159F75B
:1005E0000895F89480E886BD16BC78948EE190E07A
:1005F00090931D0180931C012FEF89EF90E0215013
:1006000080409040E1F700C0000083DE20E040E041
:1006100060E080E0ABDE20E040E860E080E8A6DE5D
:100620002FEF84E39CE0215080409040E1F700C030
:10063000000060E080E080DE8AE690E0EADE61E0D3
:1006400087E07ADE80E890E0E4DE62E080E074DE5D
:1006500084E990E0DEDE66E080E06EDE80EF90E030
:10066000D8DE67E087E068DE86E091E0D2DE2FEF3B
:100670008FE493EC215080409040E1F700C00000EF
:10068000C5CF0024552704C0080E591F880F991F95
:10069000009729F076956795B8F37105B9F7802D25
:0806A000952F0895F894FFCF97
:1006A8001027E80364000A00010048656C6C6F2C91
:1006B80020576F726C64212054657374696E6700EB
:1006C80053534431333036784C4544204C69627278
:1006D800617279002122232425262728292A2B2CF8
:1006E8002D2E2F303132333435363738393A3B3CBA
:1006F8003D3E3F404142434445464748494A4B4CAA
:100708004D4E4F505152535455565758595A5B35C0
:100718005D5E5F606162636465666768696A6B6C89
:100728006D6E6F707172737475767778797A7E00F2
:100738002054686973206973207468652054494E91
:10074800555355522000687474703A2F2F74696E8F
:0A07580075736175722E6F726700F1
:00000001FF
