:1000000030C14AC149C148C147C146C145C144C1C7
:1000100043C142C141C140C13FC13EC13DC1AE200B
:1000200000B0C8001040813FA1A6A83FA4D300D5CE
:10003000F0D922DA12DB208D14AF0000000000009E
:100040000000002F000000000700070000147F14CC
:100050007F1400242A7F2A120062640813230036CA
:100060004955225000000503000000001C224100F9
:10007000000041221C000014083E08140008083E3D
:100080000808000000A06000000808080808000038
:1000900060600000002010080402003E5149453E07
:1000A0000000427F40000042615149460021414525
:1000B0004B31001814127F10002745454539003C8C
:1000C0004A4949300001710905030036494949365A
:1000D00000064949291E0000363600000000563649
:1000E000000000081422410000141414141400002D
:1000F0004122140800020151090600324959513EBB
:10010000007C1211127C007F49494936003E414172
:100110004122007F4141221C007F49494941007F23
:1001200009090901003E4149497A007F0808087F12
:100130000000417F4100002040413F01007F081442
:100140002241007F40404040007F020C027F007F40
:100150000408107F003E4141413E007F0909090625
:10016000003E4151215E007F091929460046494958
:1001700049310001017F0101003F4040403F001F25
:100180002040201F003F4038403F006314081463A4
:1001900000070870080700615149454300007F418E
:1001A000410000552A552A55000041417F000004B6
:1001B00002010204004040404040000001020400EF
:1001C000002054545478007F484444380038444454
:1001D000442000384444487F0038545454180008E0
:1001E0007E0901020018A4A4A47C007F08040478FE
:1001F0000000447D4000004080847D00007F102886
:1002000044000000417F4000007C04180478007C1A
:100210000804047800384444443800FC242424189A
:100220000018242418FC007C0804040800485454D6
:10023000542000043F444020003C4040207C001CEF
:100240002040201C003C4030403C00442810284402
:10025000001CA0A0A07C004464544C44141414144A
:10026000141411241FBECFE5D2E0DEBFCDBF11E0D4
:10027000A0E6B0E0EEE6F6E002C005900D92AA31ED
:10028000B107D9F721E0AAE1B1E001C01D92A03287
:10029000B207E1F767D1E9C1B3CEC29AC09AC0985C
:1002A000C2980895C298C098C29AC09A089520E052
:1002B00030E090E0AC01022E01C0440F0A94EAF74E
:1002C00047FF02C0C09A01C0C098C29AC2982F5F6F
:1002D0003F4F2830310571F7C09AC29AC2980895ED
:1002E000DCDF88E7E4DF80E0E2CFDCCFCF93DF9391
:1002F0001F92CDB7DEB78983F3DF8981D8DF0F90F6
:10030000DF91CF91CFCFC9DF88E7D1DF80E4CFCFB6
:10031000C9CF1F93CF93DF93B89ABA9ACEE1D0E0BA
:100320001C2F145EFE018491E1DF21961C13FACF8D
:10033000DF91CF911F9108951F93CF93DF931F9269
:10034000CDB7DEB7182F6983CBDF698180EB860FCD
:10035000AEDF812F82958F708061A9DF812F8F7032
:10036000A6DF0F90DF91CF911F919CCFEF92FF926C
:100370000F931F93CF93DF93E82EF62E042F122FA7
:1003800060E080E0D9DFBFDFC0E0D1E08E2D8FDFFD
:100390008F2D8DDF802F8BDF812F89DF2197B1F7A4
:1003A000DF91CF911F910F91FF90EF907BCF262F80
:1003B000482FDCCF282F482F682FD8CFEF92FF92FD
:1003C0000F931F93CF93DF931F92CDB7DEB789832F
:1003D0009ADF8981805290E066E070E035D18C012F
:1003E000E12CF12CF701E00FF11FE65CFF4F849147
:1003F0005EDF8FEFE81AF80A86E0E816F10491F75D
:100400000F90DF91CF911F910F91FF90EF904ACF06
:10041000CF93DF93EC018991882311F0CFDFFBCFDD
:10042000DF91CF91089510921F016AE171E045D0EC
:1004300090E0865E9E4FECCF10921F016AE171E062
:100440003CD08AE191E0E4CF9F92AF92BF92CF92ED
:10045000DF92EF92FF920F931F93CF93DF93E82EDB
:10046000F62E942EC22E580110E0D12CFC14C8F4A4
:100470006F2D8E2D61DF47DFC12FDD2D8E2D811B6E
:10048000182F8C2F810F891538F4F501EC0FFD1F03
:1004900084910DDF2196F5CF05DFF3941C2FDD2E1F
:1004A000E5CFDF91CF911F910F91FF90EF90DF90FB
:1004B000CF90BF90AF909F900895CF93DF93CDB72B
:1004C000DEB72A970FB6F894DEBF0FBECDBFAC01E2
:1004D0008AE0E0E6F0E0DE01119601900D928A9547
:1004E000E1F7FE013196DB0120E084E0619171913A
:1004F00090E04617570720F09F5F461B570BF9CF38
:10050000843039F4911104C0243011F090EF01C00F
:10051000822F905D9D932F5F253041F72A960FB66D
:10052000F894DEBF0FBECDBFDF91CF910895FC01DF
:1005300020E08FE040E050E8E417F50730F0E41BDE
:10054000F50B8F3021F4822F02C090E001C091E0C2
:10055000905DDB019D93BD01569547952F5F20313E
:1005600059F70895F89480E886BD16BC78942FEF6B
:1005700089EF90E0215080409040E1F700C00000FA
:10058000C8DE80E017DF2FEF81EE94E0215080403D
:100590009040E1F700C0000060E080E808DF2FEF46
:1005A00085EA9EE0215080409040E1F700C00000C5
:1005B0002FEF89E698E1215080409040E1F700C09C
:1005C000000060E080E0B8DE8AE690E021DF61E0D4
:1005D00087E0B2DE80E890E01BDF62E080E0ACDE26
:1005E00084E990E015DF66E080E0A6DE80EF90E031
:1005F0000FDF67E087E0A0DE86E091E009DF2FEF04
:1006000089E698E1215080409040E1F700C0000069
:100610002FEF89E698E1215080409040E1F700C03B
:1006200000002FEF89E698E1215080409040E1F7EB
:1006300000C000002FEF89E698E1215080409040F3
:10064000E1F700C000009DCF0024552704C0080E2C
:10065000591F880F991F009729F076956795B8F371
:0E0660007105B9F7802D952F0895F894FFCFFE
:10066E001027E80364000A00010048656C6C6F2CCB
:10067E0020576F726C64212054657374696E670025
:10068E0053534431333036784C4544204C696272B2
:10069E00617279002122232425262728292A2B2C32
:1006AE002D2E2F303132333435363738393A3B3CF4
:1006BE003D3E3F404142434445464748494A4B4CE4
:1006CE004D4E4F505152535455565758595A5B35FB
:1006DE005D5E5F606162636465666768696A6B6CC4
:1006EE006D6E6F707172737475767778797A7E002D
:1006FE002054686973206973207468652054494ECC
:10070E00555355522000687474703A2F2F74696EC9
:0A071E0075736175722E6F7267002B
:00000001FF
