:100000001CC423C422C421C420C41FC41EC41DC4D4
:100010001CC41BC41AC419C418C417C416C40000D5
:1000200000007C6C64606060600000000000000004
:1000300000000000000000000000000000000000C0
:1000400000F0F81818181818989898981818181890
:100050001818181818181818181898989898989820
:100060009898989898989898989898989898989810
:100070009898989898989898981818181818189800
:100080009898981818181818F00000000000000040
:100090000000000000000000000000000000000060
:1000A000000066666666666E7C000000000000E088
:1000B000F030303030303030303030303030303080
:1000C000303F3F00003C42810000000081423C0084
:1000D000000054AA54AA540000FFFF011D151D0181
:1000E00001011D151D0101011D151D0101011D1538
:1000F0001D0101011D151D0101FF00003C42810091
:1001000000000081423C0000FF00000000000000F1
:1001100000000000000000000000000000000000DF
:1001200000003C26063E66663A000000000000FF24
:10013000FF000000081C141C0000081C141C000018
:1001400000000000000000000101010100000000AB
:100150000000050A050A0500000F1F1017151710EB
:10016000101017151710101017151710101017155D
:100170001710101017151710101F000000000001B5
:100180000101010000000000FF000000000000006D
:10019000000000000000000000000000000000005F
:1001A00000003E62607E06467C000000000000FF0A
:1001B000FF00000082C745C7000082C745C7000096
:1001C000000000000000000000000000000000002F
:1001D00000A854AA55AA55AA55AA54A8000000AAD6
:1001E00055AA55AA55AA55AA55AA55AA55AA55AA17
:1001F00055AA55AA55AA55AA55AA00000000A85408
:10020000A854A854A8000000FF000000000000004F
:1002100000000000000000000000000000000000DE
:10022000000066666666666E7C000000000000FFE7
:10023000FF00000020715171000020715171000019
:1002400000000000000000000000000000000000AE
:100250000040A142A542A542A542A140000000AA3B
:1002600055AA55AA55AA55AA55AA55AA55AA55AA96
:1002700055AA55AA55AA55AA55AA000000002A5504
:100280002A552A552A000000FF0000000000000047
:10029000000000000000000000000000000000005E
:1002A00000003E7666666666660000000000000F8D
:1002B0003F408000081C141C0000081C141C000097
:1002C000000000000000000000000000000000002E
:1002D00000A142A142A10201A241A241A00000E06E
:1002E000F130B1B0B1303130B1B0B1303130B1B046
:1002F000B1303130B1B0B13031E000000000000069
:100300000000000000000000FF00000000000000EE
:1003100000000000000000000000000000000000DD
:10032000C0CC001E0C0C0C0C1E00000000000000D5
:100330000000000102040808080808080808080866
:1003400008F8F800007884020101010102847800B5
:1003500000AA55AA55AA0000AA55AA55AA0000FF4E
:10036000FF00E3A2E3000000E3A2E3000000E3A239
:10037000E3000000E3A2E30000FF00007884020134
:100380000101010284780000FF000000000000006D
:10039000000000000000000000000000000000005D
:1003A0003F360606060606060F00000000000000A5
:1003B000000000000000000000000000000000003D
:1003C000000F1F1010101011121212121110101025
:1003D000101211121112101012111211121010110C
:1003E00013121212121212121212121212121212EC
:1003F00012121212121212121213101010101112E5
:1004000012121211101010101F0000000000000046
:1004100000000000000000000000000000000003D9
:10042000050911FF118905C300E000F000F8000084
:1004300000000000004428FF11AA44000000000052
:1004400000000000000000000000000000000000AC
:10045000000000000000000000000000000000009C
:10046000000000000000000000000000000000008C
:100470000000000000000000830138448292927462
:100480000183000000000000007C44FF017D7D7DB1
:10049000017D7D7D7D017D7D7D7D7D01FF000000F5
:1004A0000000000100010001000100010001000046
:1004B000000000000000000101000000000000003A
:1004C000000000000000000000000000000000002C
:1004D000000000000000000000000000000000001C
:1004E000000000000000000000000000000000000C
:1004F00000000000000000000101000000000000FA
:1005000001010000000000000000000101010101E4
:1005100001010101010101010101010101000000CE
:1005200000000000000000000000000000000000CB
:10053000000000000000000000003F3F0303F31331
:1005400011111111111101F111618101010181617B
:1005500011F1010101014141F10101010101C1213B
:100560001111111121C1010101014141F1010101EB
:10057000010101010101011111111111D333030313
:100580003F3F0000000000000000000000000000ED
:10059000000000000000000000000000000000005B
:1005A000000000000000000000000000000000004B
:1005B00000000000000000000000E0E000007F01FB
:1005C000010101010100007F000001061806010081
:1005D000007F0000000040407F40400000001F20DE
:1005E00040404040201F0000000040407F4040004D
:1005F000000000600000000040300C03000000001C
:10060000E0E000000000000000000000000000002A
:1006100000000000000000000000000000000000DA
:1006200000000000000000000000000000000000CA
:100630000000000000000000000007070606060694
:1006400004040484444444840404844444448404EA
:10065000040484C40404040484444444840404045A
:10066000040484444444840404040404844444444A
:1006700084040484444444840404040406060606F2
:10068000070700000000000000000000000000005C
:10069000000000000000000000000000000000005A
:1006A000000000000000000000000000000000004A
:1006B000000000000000000000000000000000003A
:1006C000000000101814121100000F1010100F007D
:1006D0000000101F10000000081012120D0000187A
:1006E00000000D1212120D00001800001018141254
:1006F000110000101814121100000000000000008A
:1007000000000000000000000000000000000000E9
:1007100000000000000000000000000000000000D9
:1007200000000000000000000000000000000000C9
:1007300000000000000000000000000000000000B9
:1007400000000000000000000000000000000000A9
:100750000000000000000000000080808080808099
:100760008080000000000000000000000000000089
:100770000000000000000000000000000000000079
:100780000000000000000000000000000000000069
:100790000000000000000000000000000000007FDA
:1007A000030C300C037F00003854545800007C04C4
:1007B000047800003C40407C000000000000000085
:1007C0000000000000000000000000000000000029
:1007D00000000000000000000000FFAAAAAA2808EC
:1007E00000FF00000000000000000000000000000A
:1007F00000000000000000000000000000000000F9
:10080000000000000000007F030C300C037F00009C
:10081000264949493200007F020408107F00AE20BB
:1008200000B0C8001040813FA1A6A83FA4D300D5C6
:10083000F0D922DA12DB208D14AF11241FBECFE5D0
:10084000D2E0DEBFCDBFBBD0F7C0DACBB89ABA9A40
:10085000C29AC09AC098C2980895C298C098C29A85
:10086000C09AB898089520E030E090E0AC01022EE4
:1008700001C0440F0A94EAF747FF02C0C09A01C0C2
:10088000C098C29AC2982F5F3F4F2830310571F748
:10089000C09AC29AC2980895D9DF88E7E4DF80E061
:1008A000E2CFD4DF88E7DFDF80E4DDCFDCCFD5CF58
:1008B0001F93CF93DF93F0DFCEE1D8E01C2F145EBF
:1008C000FE018491D0DF21961C13FACFDF91CF91E6
:1008D0001F91C3CF1F93CF93DF931F92CDB7DEB786
:1008E000182F6983D9DF6981862F8770806BBBDF02
:1008F000812F8F70B8DF812F82958F708061B3DF79
:100900000F90DF91CF911F91A8CFEF92FF920F939D
:100910001F93CF93DF93E82EF62E042F122F60E063
:1009200080E0D8DFBEDFC0E0D1E08E2D9CDF8F2DD0
:100930009ADF802F98DF812F96DF2197B1F7DF9123
:10094000CF911F910F91FF90EF9087CF9F92AF9221
:10095000BF92CF92DF92EF92FF920F931F93CF93AC
:10096000DF93E82EF62E942EC22E580110E0D12CE3
:10097000FC14C8F46F2D8E2DADDF93DFC12FDD2D5C
:100980008E2D811B182F8C2F810F891538F4F501BE
:10099000EC0FFD1F84918ADF2196F5CF88DFF39459
:1009A0001C2FDD2EE5CFDF91CF911F910F91FF908E
:1009B000EF90DF90CF90BF90AF909F900895F89404
:1009C00080E886BD16BC78942FEF89EF90E0215027
:1009D00080409040E1F700C000006ADF20E040E086
:1009E00060E080E092DF0EE114E028E030E040E8D3
:1009F00050E060E070E080E090E0A8DF2FEF83ED52
:100A000090E3215080409040E1F700C000000EE1EB
:100A100010E028E030E040E850E060E070E080E086
:100A200090E094DF2FEF8FE493EC215080409040D2
:0C0A3000E1F700C00000D2CFF894FFCF27
:00000001FF
