:1000000028C442C441C440C43FC43EC43DC43CC4EF
:100010003BC43AC439C438C437C436C435C40000FC
:1000200000000000000000000000000000000000D0
:1000300000F8000000000000003330000000001055
:100040000C06100C0600000000000000000040C07C
:100050007840C0784000043F04043F04040000706E
:1000600088FC08300000001820FF211E0000F00866
:10007000F000E018000000211C031E211E0000F00B
:100080000888700000001E21232419272110101653
:100090000E00000000000000000000000000000052
:1000A00000E01804020000000007182040000002D1
:1000B0000418E00000000040201807000000404045
:1000C00080F0804040000202010F010202000000A7
:1000D00000F0000000000101011F0101010000000B
:1000E00000000000000080B0700000000000000070
:1000F00000000000000000010101010101010000F9
:10010000000000000000003030000000000000008F
:10011000000080601804006018060100000000E084
:1001200010080810E000000F102020100F00001031
:1001300010F8000000000020203F20200000007088
:100140000808088870000030282422213000003080
:100150000888884830000018202020110E00000078
:10016000C02010F8000000070424243F240000F8F9
:100170000888880808000019212020110E0000E0DE
:10018000108888180000000F112020110E00003880
:100190000808C83808000000003F00000000007098
:1001A000880808887000001C222121221C0000E021
:1001B00010080810E0000000312222110F0000009A
:1001C00000C0C0000000000000303000000000004F
:1001D00000800000000000008060000000000000BF
:1001E0008040201008000001020408102000404058
:1001F000404040404000040404040404040000089B
:10020000102040800000002010080402010000704F
:1002100048080808F0000000003036010000C03037
:10022000C828E810E0000718272423140B0000005A
:10023000C038E0000000203C23020227382008F8E4
:10024000888888700000203F202020110E00C030D8
:10025000080808083800071820202010080008F8AF
:1002600008080810E000203F202020100F0008F8A8
:100270008888E8081000203F20202320180008F874
:100280008888E8081000203F200003000000C030EC
:1002900008080838000007182020221E020008F86D
:1002A00008000008F808203F210101213F20000834
:1002B00008F8080800000020203F2020000000006F
:1002C0000808F8080800C08080807F00000008F857
:1002D00088C028180800203F20012638200008F890
:1002E000080000000000203F20202020300008F8F7
:1002F000F800F8F80800203F003F003F200008F811
:1003000030C00008F808203F200007183F00E01028
:1003100008080810E0000F10202020100F0008F837
:1003200008080808F000203F210101010000E0104A
:1003300008080810E0000F18242438504F0008F86F
:10034000888888887000203F2000030C30200070CF
:100350008808080838000038202121221C001808CD
:1003600008F8080818000000203F2000000008F8E6
:1003700008000008F808001F202020201F0008782F
:10038000880000C83808000007380E010000F8088F
:1003900000F80008F800033C0700073C03000818B9
:1003A00068808068180820302C03032C302008381F
:1003B000C800C83808000000203F200000001008D6
:1003C0000808C8380800203826212020180000001E
:1003D00000FE020202000000007F40404000000CCE
:1003E00030C000000000000000010638C00000021C
:1003F0000202FE000000004040407F0000000000BC
:1004000004020202040000000000000000000000DE
:1004100000000000000080808080808080800002DA
:1004200002040000000000000000000000000000C6
:100430008080808000000019242222223F2008F8BA
:10044000008080000000003F112020110E000000FD
:10045000008080800000000E11202020110000008C
:1004600000808088F800000E112020103F2000003E
:10047000808080800000001F222222221300008042
:1004800080F0888888180020203F2020000000008D
:10049000808080808000006B94949493600008F8C2
:1004A000008080800000203F210000203F2000804D
:1004B0009898000000000020203F2020000000004D
:1004C00000809898000000C08080807F000008F8BD
:1004D000000080808000203F24022D302000000892
:1004E00008F8000000000020203F2020000080804D
:1004F000808080808000203F20003F20003F80805F
:10050000008080800000203F210000203F2000006C
:10051000808080800000001F202020201F0080801D
:1005200000808000000080FFA12020110E0000004C
:10053000008080808000000E112020A0FF8080803D
:1005400080008080800020203F21200001000000EA
:1005500080808080800000332424242419000080BF
:1005600080E0808000000000001F202000008080CC
:10057000000000808000001F202020103F2080808D
:1005800080000080808000010E300806010080801D
:100590000080008080800F300C030C300F00008042
:1005A0008000808080000020312E0E31200080806D
:1005B00080000080808080818E701806010000809D
:1005C0008080808080000021302C222130000000BB
:1005D0000000807C020200000000003F404000005C
:1005E0000000FF00000000000000FF00000000020B
:1005F000027C800000000040403F00000000000638
:1006000001010202040400000000000000000000DC
:10061000000000000000002F00000000070007009D
:1006200000147F147F1400242A7F2A1200626408B9
:100630001323003649552250000005030000000036
:100640001C224100000041221C000014083E081436
:100650000008083E0808000000A060000008080824
:100660000808000060600000002010080402003E3E
:100670005149453E0000427F4000004261514946D9
:10068000002141454B31001814127F1000274545C9
:100690004539003C4A4949300001710905030036DB
:1006A0004949493600064949291E000036360000EE
:1006B00000005636000000081422410000141414F3
:1006C00014140000412214080002015109060032EE
:1006D0004959513E007C1211127C007F494949362C
:1006E000003E41414122007F4141221C007F494997
:1006F0004941007F09090901003E4149497A007FCB
:100700000808087F0000417F4100002040413F0170
:10071000007F08142241007F40404040007F020CCF
:10072000027F007F0408107F003E4141413E007F70
:1007300009090906003E4151215E007F0919294639
:100740000046494949310001017F0101003F404015
:10075000403F001F2040201F003F4038403F0063C3
:1007600014081463000708700807006151494543E5
:1007700000007F41410000552A552A5500004141A3
:100780007F0000040201020400404040404000009D
:1007900001020400002054545478007F4844443837
:1007A00000384444442000384444487F00385454BE
:1007B000541800087E0901020018A4A4A47C007F3C
:1007C000080404780000447D4000004080847D00DF
:1007D000007F102844000000417F4000007C041886
:1007E0000478007C0804047800384444443800FC51
:1007F000242424180018242418FC007C080404086D
:1008000000485454542000043F444020003C4040E1
:10081000207C001C2040201C003C4030403C004418
:1008200028102844001CA0A0A07C004464544C4420
:10083000141414141414AE2000B0C8001040813FEA
:10084000A1A6A83FA4D300D5F0D922DA12DB208DCF
:1008500014AF11241FBECFE5D2E0DEBFCDBF10E044
:10086000A0E6B0E0EEE7FDE002C005900D92A63FE5
:10087000B107D9F721E0A6EFB0E001C01D92A0308A
:10088000B207E1F7EDD179C2BBCBC29AC09AC0984A
:10089000C2980895C298C098C29AC09A089520E05C
:1008A00030E090E0AC01022E01C0440F0A94EAF758
:1008B00047FF02C0C09A01C0C098C29AC2982F5F79
:1008C0003F4F2830310571F7C09AC29AC2980895F7
:1008D000DCDF88E7E4DF80E0E2CFDCCFCF93DF939B
:1008E0001F92CDB7DEB78983F3DF8981D8DF0F9000
:1008F000DF91CF91CFCFC9DF88E7D1DF80E4CFCFC1
:10090000C9CF1F93CF93DF93B89ABA9AC6E3D8E0C2
:100910001C2F145EFE018491E1DF21961C13FACF97
:10092000DF91CF911F9108951F93CF93DF931F9273
:10093000CDB7DEB7182F6983CBDF698180EB860FD7
:10094000AEDF812F82958F708061A9DF812F8F703C
:10095000A6DF0F90DF91CF911F919CCFEF92FF9276
:100960000F931F93CF93DF93E82EF62E042F122FB1
:1009700060E080E0D9DFBFDFC0E0D1E08E2D8FDF07
:100980008F2D8DDF802F8BDF812F89DF2197B1F7AE
:10099000DF91CF911F910F91FF90EF907BCF262F8A
:1009A000482FDCCF282F482F682FD8CFCF93DF9345
:1009B0001F92CDB7DEB789839EDF898170DF0F90EC
:1009C000DF91CF9167CFEF92FF920F931F93CF9359
:1009D000DF931F92CDB7DEB789838DDF8981805287
:1009E00090E066E070E0B8D18C01E12CF12C970129
:1009F000200F311FE091F800F091F900E20FF31F92
:100A000084914DDF8FEFE81AF80A86E0E816F104CA
:100A100071F70F90DF91CF911F910F91FF90EF90A1
:100A200039CFCF93DF93EC018991882311F0CBDF8D
:100A3000FBCFDF91CF9108951092FF006AEF70E035
:100A4000A3D090E086509F4FECCF1092FF006AEF4A
:100A500070E09AD08AEF90E0E4CFAF92BF92DF923D
:100A6000EF92FF920F931F93CF93DF93182F062FD0
:100A70007A01D12CF701ED0DF11DC081CC2309F4D1
:100A800040C0C052193710F00F5F10E0602F812F67
:100A90004BDF31DFD0E084E0CC0FDD1F8A95E1F73A
:100AA000A12CB12CC5018C0F9D1FE091F600F09197
:100AB000F700E80FF91F8491F2DE8FEFA81AB80A49
:100AC00088E0A816B10471F7E5DE61E0600F812FC0
:100AD0002BDF11DF5E0188E0A80EB11C6096E0916B
:100AE000F600F091F700EA0DFB1D8491D8DE8FEF40
:100AF000A81AB80AAC16BD0691F7CCDE185FD394DD
:100B0000B9CFDF91CF911F910F91FF90EF90DF90C0
:100B1000BF90AF9008959F92AF92BF92CF92DF9215
:100B2000EF92FF920F931F93CF93DF93E82EF62E51
:100B3000942EC22E580110E0D12CFC14C8F46F2D55
:100B40008E2DF2DED8DEC12FDD2D8E2D811B182FCC
:100B50008C2F810F891538F4F501EC0FFD1F84915E
:100B60009EDE2196F5CF96DEF3941C2FDD2EE5CF89
:100B7000DF91CF911F910F91FF90EF90DF90CF9079
:100B8000BF90AF909F900895CF93DF93CDB7DEB71E
:100B90002A970FB6F894DEBF0FBECDBFAC018AE036
:100BA000E0E6F0E0DE01119601900D928A95E1F702
:100BB000FE013196DB0120E084E06191719190E0CB
:100BC0004617570720F09F5F461B570BF9CF84301D
:100BD00039F4911104C0243011F090EF01C0822F3C
:100BE000905D9D932F5F253041F72A960FB6F894BC
:100BF000DEBF0FBECDBFDF91CF910895AC01FB01E9
:100C0000339624E0942F9F709A3010F4905D01C0C9
:100C1000995C908384E0569547958A95E1F7215039
:100C200031972111EFCF84E00895FC0120E08FE09F
:100C300040E050E8E417F50730F0E41BF50B8F3087
:100C400021F4822F02C090E001C091E0905DDB01B1
:100C50009D93BD01569547952F5F203159F7089513
:100C60008EE096E09093F9008093F8008EE190E09A
:100C70009093F7008093F600F89480E886BD16BC48
:100C800078942FEF89EF90E0215080409040E1F779
:100C900000C0000036DE80E085DE2FEF81EE94E0BC
:100CA000215080409040E1F700C0000060E080E803
:100CB00076DE2FEF85EA9EE0215080409040E1F7FC
:100CC00000C000002FEF83ED90E321508040904062
:100CD000E1F700C000004AE650E060E080E0BDDEE1
:100CE00062E087E021DE8BE790E09BDE63E080E05E
:100CF0001BDE8FE890E095DE40ED50E065E080E09F
:100D0000ACDE67E087E010DE81EE90E08ADE2FEF58
:100D100083ED90E3215080409040E1F700C0000057
:100D20002FEF83ED90E3215080409040E1F700C029
:100D300000002FEF83ED90E3215080409040E1F7D9
:100D400000C000002FEF83ED90E3215080409040E1
:100D5000E1F700C000009FCF0024552704C0080E13
:100D6000591F880F991F009729F076956795B8F35A
:0E0D70007105B9F7802D952F0895F894FFCFE7
:100D7E001027E80364000A00010048656C6C6F2CB4
:100D8E0020576F726C6421203A290053534431333B
:100D9E003036784C4544204C69627261727900217C
:100DAE0022232425262728292A2B2C2D2E2F30319D
:100DBE0032333435363738393A3B3C3D3E3F40418D
:100DCE0042434445464748494A4B4C4D4E4F50517D
:100DDE0052535455565758595A5B355D5E5F6000F5
:100DEE0054494E55534155522050726F6A65637483
:100DFE0000687474703A2F2F74696E757361757212
:060E0E002E6F7267000068
:00000001FF
