:100000001EC02DC02CC02BC02AC029C028C027C0AC
:1000100026C025C024C023C022C021C020C0AED528
:10002000F0A83FD300408D142000A1C8DA12813F10
:10003000D922DB20A4A62EAF22003F21007F11246D
:100040001FBECFE5D2E0DEBFCDBF20E0A0E6B0E02E
:1000500001C01D92A236B207E1F782D0DAC0D0CF3C
:10006000B89ABA9AC29AC09AC098C2980895C2988B
:10007000C098C29AC09AB898BA98089598E087FF35
:1000800002C0C09A01C0C098880FC29AC29891500D
:10009000B1F7C09AC29AC2980895E2DF88E7EEDF0E
:1000A00080E0ECCFDDDF88E7E9DF80E4E7CFE6CF73
:1000B000DECFCF93DF93F1DFCEE1D0E0FE0184917C
:1000C000DDDF2196F0E0CE33DF07C1F7DF91CF917E
:1000D000CECFCF93DF93C82FD62FDFDF8D2F877042
:1000E000806BCCDF8C2F8F70C9DF8C2F82958F7047
:1000F0008061C4DFDF91CF91BACF1F93CF93DF939D
:10010000182F60E080E0E5DFCDDFC0E0D4E0812F94
:10011000B5DF2197E1F7DF91CF911F91A8CFEF9243
:10012000FF920F931F93CF93DF93E82EF62E042FA9
:10013000122F60E080E0CDDFB5DFC0E0D1E08E2D92
:100140009DDF8F2D9BDF802F99DF812F97DF2197F8
:10015000B1F7DF91CF911F910F91FF90EF9087CF73
:10016000A8DF80E0CADFC8E0DFEFD6958D2F80954D
:10017000C4DFC150D1F72FE986E891E021508040DB
:100180009040E1F700C0000060E080E0A2DF8ADF7D
:1001900000E014E0CFEF8C2F8ADFC69509F4CFEF93
:1001A00001501109C1F784DF2FE986E891E0215061
:1001B00080409040E1F700C0000060E080E089DF0F
:1001C00071DFC0E0D4E02091600030916100C9018E
:1001D0008D5A9F4F44E0220F331F4A95E1F7820F5B
:1001E000931F9F73909361008093600056E09695F3
:1001F00087955A95E1F75BDF219729F759DF2FE9BA
:1002000086E891E0215080409040E1F700C0000076
:06021000A8CFF894FFCF17
:00000001FF
