:1000000030C14AC149C148C147C146C145C144C1C7
:1000100043C142C141C140C13FC13EC13DC10000D9
:10002000000000000000002F000000000700070093
:1000300000147F147F1400242A7F2A1200626408AF
:10004000132300364955225000000503000000002C
:100050001C224100000041221C000014083E08142C
:100060000008083E0808000000A06000000808081A
:100070000808000060600000002010080402003E34
:100080005149453E0000427F4000004261514946CF
:10009000002141454B31001814127F1000274545BF
:1000A0004539003C4A4949300001710905030036D1
:1000B0004949493600064949291E000036360000E4
:1000C00000005636000000081422410000141414E9
:1000D00014140000412214080002015109060032E4
:1000E0004959513E007C1211127C007F4949493622
:1000F000003E41414122007F4141221C007F49498D
:100100004941007F09090901003E4149497A007FC0
:100110000808087F0000417F4100002040413F0166
:10012000007F08142241007F40404040007F020CC5
:10013000027F007F0408107F003E4141413E007F66
:1001400009090906003E4151215E007F091929462F
:100150000046494949310001017F0101003F40400B
:10016000403F001F2040201F003F4038403F0063B9
:1001700014081463000708700807006151494543DB
:1001800000007F41410000552A552A550000414199
:100190007F00000402010204004040404040000093
:1001A00001020400002054545478007F484444382D
:1001B00000384444442000384444487F00385454B4
:1001C000541800087E0901020018A4A4A47C007F32
:1001D000080404780000447D4000004080847D00D5
:1001E000007F102844000000417F4000007C04187C
:1001F0000478007C0804047800384444443800FC47
:10020000242424180018242418FC007C0804040862
:1002100000485454542000043F444020003C4040D7
:10022000207C001C2040201C003C4030403C00440E
:1002300028102844001CA0A0A07C004464544C4416
:10024000141414141414AE2000B0C8001040813FE0
:10025000A1A6A83FA4D300D5F0D922DA12DB208DC5
:1002600014AF11241FBECFE5D2E0DEBFCDBF10E03A
:10027000A0E6B0E0E6E0F8E002C005900D92A03AFA
:10028000B107D9F720E0A0EAB0E001C01D92AA3A78
:10029000B207E1F7DFD1B5C2B3CEC29AC09AC09817
:1002A000C2980895C298C098C29AC09A089520E052
:1002B00030E090E0AC01022E01C0440F0A94EAF74E
:1002C00047FF02C0C09A01C0C098C29AC2982F5F6F
:1002D0003F4F2830310571F7C09AC29AC2980895ED
:1002E000DCDF88E7E4DF80E0E2CFDCCFCF93DF9391
:1002F0001F92CDB7DEB78983F3DF8981D8DF0F90F6
:10030000DF91CF91CFCFC9DF88E7D1DF80E4CFCFB6
:10031000C9CF1F93CF93DF93B89ABA9AC6E4D2E0BD
:100320001C2F145EFE018491E1DF21961C13FACF8D
:10033000DF91CF911F9108951F93CF93DF931F9269
:10034000CDB7DEB7182F6983CBDF698180EB860FCD
:10035000AEDF812F82958F708061A9DF812F8F7032
:10036000A6DF0F90DF91CF911F919CCFEF92FF926C
:100370000F931F93CF93DF93E82EF62E042F122FA7
:1003800060E080E0D9DFBFDFC0E0D1E08E2D8FDFFD
:100390008F2D8DDF802F8BDF812F89DF2197B1F7A4
:1003A000DF91CF911F910F91FF90EF907BCFCF9373
:1003B000DF931F92CDB7DEB78983A5DF898177DF11
:1003C0000F90DF91CF916ECF9F92AF92BF92CF925D
:1003D000DF92EF92FF920F931F93CF93DF93E82E5C
:1003E000F62E942EC22E580110E0D12CFC14C8F425
:1003F0006F2D8E2DA1DF87DFC12FDD2D8E2D811B6F
:10040000182F8C2F810F891538F4F501EC0FFD1F83
:1004100084914DDF2196F5CF45DFF3941C2FDD2E1F
:10042000E5CFDF91CF911F910F91FF90EF90DF907B
:10043000CF90BF90AF909F90089508950F931F9312
:10044000CF93DF93C82F5FDF80EE8C0F90E066E0E4
:1004500070E0B2D18C01C0E0D0E09E01200F311FCE
:10046000E091A200F091A300E20FF31F849190E0CD
:100470001EDF2196C630D10581F7DF91CF911F9104
:100480000F9146CFCF93DF93EC018991882311F030
:10049000D5DFFBCFDF91CF9108951092A90064EAD8
:1004A00070E06CD090E08C559F4FECCF1092A9007B
:1004B00064EA70E063D084EA90E0E4CFAF92BF9248
:1004C000DF92EF92FF920F931F93CF93DF93182F3A
:1004D000062F7A01D12CF701ED0DF11DC081CC233F
:1004E00009F442C0C052193710F00F5F10E0602FBE
:1004F000812F22DF08DFD0E084E0CC0FDD1F8A955A
:10050000E1F7A12CB12CC5018C0F9D1FE091A0003B
:10051000F091A100E80FF91F849190E0C8DE8FEF01
:10052000A81AB80A88E0A816B10469F7F1DE61E0FC
:10053000600F812F01DFE7DE5E0188E0A80EB11CAD
:100540006096E091A000F091A100EA0DFB1D84915E
:1005500090E0ADDE8FEFA81AB80AAC16BD0689F799
:10056000D7DE185FD394B7CFDF91CF911F910F9152
:10057000FF90EF90DF90BF90AF900895CF93DF93FF
:10058000CDB7DEB72A970FB6F894DEBF0FBECDBF4A
:10059000AC018AE0E0E6F0E0DE01119601900D92F8
:1005A0008A95E1F7FE013196DB0120E084E061915C
:1005B000719190E04617570720F09F5F461B570B3D
:1005C000F9CF843039F4911104C0243011F090EF48
:1005D00001C0822F905D9D932F5F253041F72A96B1
:1005E0000FB6F894DEBF0FBECDBFDF91CF91089557
:1005F000AC01FB01339624E0942F9F709A3010F4E5
:10060000905D01C0995C908384E0569547958A95EA
:10061000E1F7215031972111EFCF84E00895FC01DB
:1006200020E08FE040E050E8E417F50730F0E41BED
:10063000F50B8F3021F4822F02C090E001C091E0D1
:10064000905DDB019D93BD01569547952F5F20314D
:1006500059F70895F89480E886BD16BC78948EE129
:1006600090E09093A3008093A2002FEF89EF90E099
:10067000215080409040E1F700C000004ADE81E256
:10068000E82EF12C20E040E060E080E06FDE2AEA16
:1006900045E56AEA85E56ADE2FEF84E39CE02150B8
:1006A00080409040E1F700C0000061E084E044DE5B
:1006B0008AE690E0E7DE13E0C0E0D0E0612F8CE056
:1006C0003BDE6E0126E0C20ED11C5E018FEFA81A40
:1006D000B80ACE01E2DE83E990E0D4DEE501AC1495
:1006E000BD0499F71F5F173049F79FEF23ED80E3B3
:1006F000915020408040E1F700C0000013E0C7ECBB
:10070000D0E0612F8CE018DE6E019BE5C91A99EFED
:10071000D90ACE01CBDE83E990E0B4DEC95CDD4FBF
:10072000CC15DD05B1F71F5F173059F72FEF83EDBB
:1007300090E3215080409040E1F700C0000063E06A
:1007400082E1FADD8FE790E09DDE66E082E1F4DD94
:100750008FE790E097DE13EAC0E0D0E064E082E14A
:10076000EBDD80E990E08EDECE01A0DE85E990E051
:1007700089DE65E082E1E0DD8AE990E083DECE019A
:100780008095909593DE85E990E07CDECE0163E074
:1007900070E012D0B70121D06F5F7F4FC60FD71F17
:1007A0001150E1F62FEF8FE493EC21508040904000
:1007B000E1F700C0000066CF0024552704C0080EF2
:1007C000591F880F991F009729F076956795B8F300
:1007D0007105B9F7802D952F0895AA1BBB1B51E118
:1007E00007C0AA1FBB1FA617B70710F0A61BB70BA1
:1007F000881F991F5A95A9F780959095BC01CD0146
:060800000895F894FFCFFB
:100806001027E80364000A000100204E756D62653A
:10081600727320696E2061207461626C6520002D00
:100826002D2D2D2D2D2D2D2D2D2D2D2D2D2D2D001F
:1008360061203D2000202D3E200062203D2000004A
:00000001FF
