:1000000028C842C841C840C83FC83EC83DC83CC8CF
:100010003BC83AC839C838C837C836C835C80000E0
:1000200000007C6C64606060600000000000000004
:1000300000000000000000000000000000000000C0
:1000400000F0F81818181818989898981818181890
:100050001818181818181818181898989898989820
:100060009898989898989898989898989898989810
:100070009898989898989898981818181818189800
:100080009898981818181818F00000000000000040
:100090000000000000000000000000000000000060
:1000A000000066666666666E7C000000000000E088
:1000B000F030303030303030303030303030303080
:1000C000303F3F00003C42810000000081423C0084
:1000D000000054AA54AA540000FFFF011D151D0181
:1000E00001011D151D0101011D151D0101011D1538
:1000F0001D0101011D151D0101FF00003C42810091
:1001000000000081423C0000FF00000000000000F1
:1001100000000000000000000000000000000000DF
:1001200000003C26063E66663A000000000000FF24
:10013000FF000000081C141C0000081C141C000018
:1001400000000000000000000101010100000000AB
:100150000000050A050A0500000F1F1017151710EB
:10016000101017151710101017151710101017155D
:100170001710101017151710101F000000000001B5
:100180000101010000000000FF000000000000006D
:10019000000000000000000000000000000000005F
:1001A00000003E62607E06467C000000000000FF0A
:1001B000FF00000082C745C7000082C745C7000096
:1001C000000000000000000000000000000000002F
:1001D00000A854AA55AA55AA55AA54A8000000AAD6
:1001E00055AA55AA55AA55AA55AA55AA55AA55AA17
:1001F00055AA55AA55AA55AA55AA00000000A85408
:10020000A854A854A8000000FF000000000000004F
:1002100000000000000000000000000000000000DE
:10022000000066666666666E7C000000000000FFE7
:10023000FF00000020715171000020715171000019
:1002400000000000000000000000000000000000AE
:100250000040A142A542A542A542A140000000AA3B
:1002600055AA55AA55AA55AA55AA55AA55AA55AA96
:1002700055AA55AA55AA55AA55AA000000002A5504
:100280002A552A552A000000FF0000000000000047
:10029000000000000000000000000000000000005E
:1002A00000003E7666666666660000000000000F8D
:1002B0003F408000081C141C0000081C141C000097
:1002C000000000000000000000000000000000002E
:1002D00000A142A142A10201A241A241A00000E06E
:1002E000F130B1B0B1303130B1B0B1303130B1B046
:1002F000B1303130B1B0B13031E000000000000069
:100300000000000000000000FF00000000000000EE
:1003100000000000000000000000000000000000DD
:10032000C0CC001E0C0C0C0C1E00000000000000D5
:100330000000000102040808080808080808080866
:1003400008F8F800007884020101010102847800B5
:1003500000AA55AA55AA0000AA55AA55AA0000FF4E
:10036000FF00E3A2E3000000E3A2E3000000E3A239
:10037000E3000000E3A2E30000FF00007884020134
:100380000101010284780000FF000000000000006D
:10039000000000000000000000000000000000005D
:1003A0003F360606060606060F00000000000000A5
:1003B000000000000000000000000000000000003D
:1003C000000F1F1010101011121212121110101025
:1003D000101211121112101012111211121010110C
:1003E00013121212121212121212121212121212EC
:1003F00012121212121212121213101010101112E5
:1004000012121211101010101F0000000000000046
:1004100000000000000000000000000000000003D9
:10042000050911FF118905C300E000F000F8000084
:1004300000000000004428FF11AA44000000000052
:1004400000000000000000000000000000000000AC
:10045000000000000000000000000000000000009C
:10046000000000000000000000000000000000008C
:100470000000000000000000830138448292927462
:100480000183000000000000007C44FF017D7D7DB1
:10049000017D7D7D7D017D7D7D7D7D01FF000000F5
:1004A0000000000100010001000100010001000046
:1004B000000000000000000101000000000000003A
:1004C000000000000000000000000000000000002C
:1004D000000000000000000000000000000000001C
:1004E000000000000000000000000000000000000C
:1004F00000000000000000000101000000000000FA
:1005000001010000000000000000000101010101E4
:1005100001010101010101010101010101000000CE
:1005200000000000000000000000000000000000CB
:10053000000000000000000000003F3F0303F31331
:1005400011111111111101F111618101010181617B
:1005500011F1010101014141F10101010101C1213B
:100560001111111121C1010101014141F1010101EB
:10057000010101010101011111111111D333030313
:100580003F3F0000000000000000000000000000ED
:10059000000000000000000000000000000000005B
:1005A000000000000000000000000000000000004B
:1005B00000000000000000000000E0E000007F01FB
:1005C000010101010100007F000001061806010081
:1005D000007F0000000040407F40400000001F20DE
:1005E00040404040201F0000000040407F4040004D
:1005F000000000600000000040300C03000000001C
:10060000E0E000000000000000000000000000002A
:1006100000000000000000000000000000000000DA
:1006200000000000000000000000000000000000CA
:100630000000000000000000000007070606060694
:1006400004040484444444840404844444448404EA
:10065000040484C40404040484444444840404045A
:10066000040484444444840404040404844444444A
:1006700084040484444444840404040406060606F2
:10068000070700000000000000000000000000005C
:10069000000000000000000000000000000000005A
:1006A000000000000000000000000000000000004A
:1006B000000000000000000000000000000000003A
:1006C000000000101814121100000F1010100F007D
:1006D0000000101F10000000081012120D0000187A
:1006E00000000D1212120D00001800001018141254
:1006F000110000101814121100000000000000008A
:1007000000000000000000000000000000000000E9
:1007100000000000000000000000000000000000D9
:1007200000000000000000000000000000000000C9
:1007300000000000000000000000000000000000B9
:1007400000000000000000000000000000000000A9
:100750000000000000000000000080808080808099
:100760008080000000000000000000000000000089
:100770000000000000000000000000000000000079
:100780000000000000000000000000000000000069
:100790000000000000000000000000000000007FDA
:1007A000030C300C037F00003854545800007C04C4
:1007B000047800003C40407C000000000000000085
:1007C0000000000000000000000000000000000029
:1007D00000000000000000000000FFAAAAAA2808EC
:1007E00000FF00000000000000000000000000000A
:1007F00000000000000000000000000000000000F9
:10080000000000000000007F030C300C037F00009C
:10081000264949493200007F020408107F00000089
:1008200000000000000000000000000000000000C8
:1008300000F800000000000000333000000000104D
:100840000C06100C0600000000000000000040C074
:100850007840C0784000043F04043F040400007066
:1008600088FC08300000001820FF211E0000F0085E
:10087000F000E018000000211C031E211E0000F003
:100880000888700000001E2123241927211010164B
:100890000E0000000000000000000000000000004A
:1008A00000E01804020000000007182040000002C9
:1008B0000418E0000000004020180700000040403D
:1008C00080F0804040000202010F0102020000009F
:1008D00000F0000000000101011F01010100000003
:1008E00000000000000080B0700000000000000068
:1008F00000000000000000010101010101010000F1
:100900000000000000000030300000000000000087
:10091000000080601804006018060100000000E07C
:1009200010080810E000000F102020100F00001029
:1009300010F8000000000020203F20200000007080
:100940000808088870000030282422213000003078
:100950000888884830000018202020110E00000070
:10096000C02010F8000000070424243F240000F8F1
:100970000888880808000019212020110E0000E0D6
:10098000108888180000000F112020110E00003878
:100990000808C83808000000003F00000000007090
:1009A000880808887000001C222121221C0000E019
:1009B00010080810E0000000312222110F00000092
:1009C00000C0C00000000000003030000000000047
:1009D00000800000000000008060000000000000B7
:1009E0008040201008000001020408102000404050
:1009F0004040404040000404040404040400000893
:100A00001020408000000020100804020100007047
:100A100048080808F0000000003036010000C0302F
:100A2000C828E810E0000718272423140B00000052
:100A3000C038E0000000203C23020227382008F8DC
:100A4000888888700000203F202020110E00C030D0
:100A5000080808083800071820202010080008F8A7
:100A600008080810E000203F202020100F0008F8A0
:100A70008888E8081000203F20202320180008F86C
:100A80008888E8081000203F200003000000C030E4
:100A900008080838000007182020221E020008F865
:100AA00008000008F808203F210101213F2000082C
:100AB00008F8080800000020203F20200000000067
:100AC0000808F8080800C08080807F00000008F84F
:100AD00088C028180800203F20012638200008F888
:100AE000080000000000203F20202020300008F8EF
:100AF000F800F8F80800203F003F003F200008F809
:100B000030C00008F808203F200007183F00E01020
:100B100008080810E0000F10202020100F0008F82F
:100B200008080808F000203F210101010000E01042
:100B300008080810E0000F18242438504F0008F867
:100B4000888888887000203F2000030C30200070C7
:100B50008808080838000038202121221C001808C5
:100B600008F8080818000000203F2000000008F8DE
:100B700008000008F808001F202020201F00087827
:100B8000880000C83808000007380E010000F80887
:100B900000F80008F800033C0700073C03000818B1
:100BA00068808068180820302C03032C3020083817
:100BB000C800C83808000000203F200000001008CE
:100BC0000808C83808002038262120201800000016
:100BD00000FE020202000000007F40404000000CC6
:100BE00030C000000000000000010638C000000214
:100BF0000202FE000000004040407F0000000000B4
:100C000004020202040000000000000000000000D6
:100C100000000000000080808080808080800002D2
:100C200002040000000000000000000000000000BE
:100C30008080808000000019242222223F2008F8B2
:100C4000008080000000003F112020110E000000F5
:100C5000008080800000000E112020201100000084
:100C600000808088F800000E112020103F20000036
:100C7000808080800000001F22222222130000803A
:100C800080F0888888180020203F20200000000085
:100C9000808080808000006B94949493600008F8BA
:100CA000008080800000203F210000203F20008045
:100CB0009898000000000020203F20200000000045
:100CC00000809898000000C08080807F000008F8B5
:100CD000000080808000203F24022D30200000088A
:100CE00008F8000000000020203F20200000808045
:100CF000808080808000203F20003F20003F808057
:100D0000008080800000203F210000203F20000064
:100D1000808080800000001F202020201F00808015
:100D200000808000000080FFA12020110E00000044
:100D3000008080808000000E112020A0FF80808035
:100D400080008080800020203F21200001000000E2
:100D500080808080800000332424242419000080B7
:100D600080E0808000000000001F202000008080C4
:100D7000000000808000001F202020103F20808085
:100D800080000080808000010E3008060100808015
:100D90000080008080800F300C030C300F0000803A
:100DA0008000808080000020312E0E312000808065
:100DB00080000080808080818E7018060100008095
:100DC0008080808080000021302C222130000000B3
:100DD0000000807C020200000000003F4040000054
:100DE0000000FF00000000000000FF000000000203
:100DF000027C800000000040403F00000000000630
:100E000001010202040400000000000000000000D4
:100E1000000000000000002F000000000700070095
:100E200000147F147F1400242A7F2A1200626408B1
:100E3000132300364955225000000503000000002E
:100E40001C224100000041221C000014083E08142E
:100E50000008083E0808000000A06000000808081C
:100E60000808000060600000002010080402003E36
:100E70005149453E0000427F4000004261514946D1
:100E8000002141454B31001814127F1000274545C1
:100E90004539003C4A4949300001710905030036D3
:100EA0004949493600064949291E000036360000E6
:100EB00000005636000000081422410000141414EB
:100EC00014140000412214080002015109060032E6
:100ED0004959513E007C1211127C007F4949493624
:100EE000003E41414122007F4141221C007F49498F
:100EF0004941007F09090901003E4149497A007FC3
:100F00000808087F0000417F4100002040413F0168
:100F1000007F08142241007F40404040007F020CC7
:100F2000027F007F0408107F003E4141413E007F68
:100F300009090906003E4151215E007F0919294631
:100F40000046494949310001017F0101003F40400D
:100F5000403F001F2040201F003F4038403F0063BB
:100F600014081463000708700807006151494543DD
:100F700000007F41410000552A552A55000041419B
:100F80007F00000402010204004040404040000095
:100F900001020400002054545478007F484444382F
:100FA00000384444442000384444487F00385454B6
:100FB000541800087E0901020018A4A4A47C007F34
:100FC000080404780000447D4000004080847D00D7
:100FD000007F102844000000417F4000007C04187E
:100FE0000478007C0804047800384444443800FC49
:100FF000242424180018242418FC007C0804040865
:1010000000485454542000043F444020003C4040D9
:10101000207C001C2040201C003C4030403C004410
:1010200028102844001CA0A0A07C004464544C4418
:10103000141414141414AE2000B0C8001040813FE2
:10104000A1A6A83FA4D300D5F0D922DA12DB208DC7
:1010500014AF11241FBECFE5D2E0DEBFCDBF10E03C
:10106000A0E6B0E0E6E2F7E102C005900D92AC3DEB
:10107000B107D9F720E0ACEDB0E001C01D92A63E6B
:10108000B207E1F7C9D14DC3BBC7C29AC09AC09895
:10109000C2980895C298C098C29AC09A089520E054
:1010A00030E090E0AC01022E01C0440F0A94EAF750
:1010B00047FF02C0C09A01C0C098C29AC2982F5F71
:1010C0003F4F2830310571F7C09AC29AC2980895EF
:1010D000DCDF88E7E4DF80E0E2CFDCCFCF93DF9393
:1010E0001F92CDB7DEB78983F3DF8981D8DF0F90F8
:1010F000DF91CF91CFCFC9DF88E7D1DF80E4CFCFB9
:10110000C9CF1F93CF93DF93B89ABA9AC6E3D0E1C1
:101110001C2F145EFE018491E1DF21961C13FACF8F
:10112000DF91CF911F9108951F93CF93DF931F926B
:10113000CDB7DEB7182F6983CBDF698180EB860FCF
:10114000AEDF812F82958F708061A9DF812F8F7034
:10115000A6DF0F90DF91CF911F919CCFEF92FF926E
:101160000F931F93CF93DF93E82EF62E042F122FA9
:1011700060E080E0D9DFBFDFC0E0D1E08E2D8FDFFF
:101180008F2D8DDF802F8BDF812F89DF2197B1F7A6
:10119000DF91CF911F910F91FF90EF907BCF262F82
:1011A000482FDCCF282F482F682FD8CFEF92FF92FF
:1011B0000F931F93CF93DF931F92CDB7DEB7898331
:1011C0009ADF8981805290E066E070E085D28C01E0
:1011D000E12CF12C9701200F311FE091DE00F091FE
:1011E000DF00E20FF31F84915ADF8FEFE81AF80A4D
:1011F00086E0E816F10471F70F90DF91CF911F910F
:101200000F91FF90EF9046CFCF93DF93EC01899140
:10121000882311F0CBDFFBCFDF91CF91089510929F
:10122000E50060EE70E0A3D090E080529F4FECCFDD
:101230001092E50060EE70E09AD080EE90E0E4CF8E
:10124000AF92BF92DF92EF92FF920F931F93CF93D3
:10125000DF93182F062F7A01D12CF701ED0DF11D28
:10126000C081CC2309F440C0C052193710F00F5F81
:1012700010E0602F812F58DF3EDFD0E084E0CC0FFC
:10128000DD1F8A95E1F7A12CB12CC5018C0F9D1FA4
:10129000E091DC00F091DD00E80FF91F8491FFDEA2
:1012A0008FEFA81AB80A88E0A816B10471F7F2DE29
:1012B00061E0600F812F38DF1EDF5E0188E0A80E3D
:1012C000B11C6096E091DC00F091DD00EA0DFB1DA1
:1012D0008491E5DE8FEFA81AB80AAC16BD0691F727
:1012E000D9DE185FD394B9CFDF91CF911F910F91C1
:1012F000FF90EF90DF90BF90AF9008959F92AF92D4
:10130000BF92CF92DF92EF92FF920F931F93CF93F2
:10131000DF93E82EF62E942EC22E580110E0D12C29
:10132000FC14C8F46F2D8E2DFFDEE5DEC12FDD2D00
:101330008E2D811B182F8C2F810F891538F4F50104
:10134000EC0FFD1F8491ABDE2196F5CFA3DEF39465
:101350001C2FDD2EE5CFDF91CF911F910F91FF90D4
:10136000EF90DF90CF90BF90AF909F900895CF9374
:10137000DF93CDB7DEB72A970FB6F894DEBF0FBE66
:10138000CDBFAC018AE0E0E6F0E0DE01119601900D
:101390000D928A95E1F7FE013196DB0120E084E0B1
:1013A0006191719190E04617570720F09F5F461BAF
:1013B000570BF9CF843039F4911104C0243011F067
:1013C00090EF01C0822F905D9D932F5F253041F7F4
:1013D0002A960FB6F894DEBF0FBECDBFDF91CF9136
:1013E0000895FC0120E08FE040E050E8E417F507A5
:1013F00030F0E41BF50B8F3021F4822F02C090E017
:1014000001C091E0905DDB019D93BD01569547952C
:101410002F5F203159F708958EE09EE09093DF0012
:101420008093DE008EE198E09093DD008093DC00F5
:10143000F89480E886BD16BC78942FEF89EF90E091
:10144000215080409040E1F700C000005ADE81E268
:10145000E82EF12C80E0A6DE2FEF81EE94E0215003
:1014600080409040E1F700C00000C8E0DFEFD69573
:101470008D2F809597DEC150D1F72FEF85EA9EE042
:10148000215080409040E1F700C000008AEA8ADEE7
:101490002FEF85EA9EE0215080409040E1F700C0A8
:1014A000000060E08FEF7BDE2FEF85EA9EE02150A9
:1014B00080409040E1F700C000006AEA85E56FDEF9
:1014C0002FEF85EA9EE0215080409040E1F700C078
:1014D000000023E343E36CEC8CEC40DE2FEF85EA65
:1014E0009EE0215080409040E1F700C000002FEFC7
:1014F00083ED90E3215080409040E1F700C0000070
:1015000010E0C0E0D0E0612F80E00EDE6E0127E049
:10151000C20ED11C5E018FEFA81AB80ACE017FDE81
:101520008AE690E071DEE501AC14BD0499F71F5F17
:10153000183049F79FEF23ED80E391502040804021
:10154000E1F700C0000065E58AEA29DE11E0C7EC9A
:10155000D0E0612F8AE0E8DD6E019BE5C91A99EFC2
:10156000D90ACE0165DE8AE690E04EDEC95CDD4F29
:10157000CC15DD05B1F71F5F173059F72FEF83ED5D
:1015800090E3215080409040E1F700C0000023E04C
:101590004CE060E380ECE2DD2FEF85EA9EE0215035
:1015A00080409040E1F700C0000013EAC0E0D0E0C6
:1015B00063E08CE2B9DD8CE690E026DECE0138DE19
:1015C00064E08CE2B1DD8FE690E01EDECE01809516
:1015D00090952EDECE0163E070E07ED0B7018DD015
:1015E0006F5F7F4FC60FD71F115011F72FEF83ED9D
:1015F00090E3215080409040E1F700C0000080E07F
:10160000D1DD2FEF81EE94E0215080409040E1F752
:1016100000C0000060E082E287DD82E790E0F4DD58
:101620004EE750E061E08AE00BDE62E080E57CDDC1
:101630008FEB90E0E9DD64E080E076DD87E890E024
:10164000E3DD67E088E070DD87EC90E0DDDD2FEF23
:1016500083ED90E3215080409040E1F700C000000E
:101660002FEF83ED90E3215080409040E1F700C0E0
:1016700000000EE110E028E040E860E080E03EDE9F
:101680002FEF83ED90E3215080409040E1F700C0C0
:1016900000002FEF83ED90E3215080409040E1F770
:1016A00000C000000EE114E028E040E860E080E0C7
:1016B00025DE2FEF83ED90E3215080409040E1F74D
:1016C00000C000002FEF83ED90E321508040904058
:1016D000E1F700C00000BECE0024552704C0080E6C
:1016E000591F880F991F009729F076956795B8F3D1
:1016F0007105B9F7802D952F0895AA1BBB1B51E1E9
:1017000007C0AA1FBB1FA617B70710F0A61BB70B71
:10171000881F991F5A95A9F780959095BC01CD0116
:061720000895F894FFCFCC
:101726001027E80364000A0001002000613D006202
:101736003D005468697320697320746865005469B4
:101746006E75736175720054686520717569636B97
:1017560020737461727420202020202020706C6118
:1017660074666F726D20666F7220796F75722020B5
:1017760020206E65787420617765736F6D652070C3
:10178600726F6A65637400687474703A2F2F746997
:0C1796006E75736175722E6F7267000033
:00000001FF
