:100000001EC025C024C023C022C021C020C01FC0E4
:100010001EC01DC01CC01BC01AC019C018C0AED560
:10002000F0A83FD300408D142000A1C8DA12813F10
:10003000D922DB20A4A62EAF22003F21007F11246D
:100040001FBECFE5D2E0DEBFCDBF82D065C1D8CF25
:10005000B89ABA9AC29AC09AC098C2980895C2989B
:10006000C098C29AC09AB898BA98089598E087FF45
:1000700002C0C09A01C0C098880FC29AC29891501D
:10008000B1F7C09AC29AC2980895E2DF88E7EEDF1E
:1000900080E0ECCFDDDF88E7E9DF80E4E7CFE6CF83
:1000A000DECFCF93DF93F1DFCEE1D0E0FE0184918C
:1000B000DDDF2196F0E0CE33DF07C1F7DF91CF918E
:1000C000CECFCF93DF93C82FD62FDFDF8D2F877052
:1000D000806BCCDF8C2F8F70C9DF8C2F82958F7057
:1000E0008061C4DFDF91CF91BACF1F93CF93DF93AD
:1000F000182F60E080E0E5DFCDDFC0E0D4E0812FA5
:10010000B5DF2197E1F7DF91CF911F91A8CFEF9253
:10011000FF920F931F93CF93DF93E82EF62E042FB9
:10012000122F60E080E0CDDFB5DFC0E0D1E08E2DA2
:100130009DDF8F2D9BDF802F99DF812F97DF219708
:10014000B1F7DF91CF911F910F91FF90EF9087CF83
:10015000F89480E886BD16BC78942FEF89EF90E084
:10016000215080409040E1F700C000009ADF29E074
:10017000C22E22E0D22E80E0B8DF60E080E0A1DF76
:1001800089DF9CE3F92EC4E6D0E000E014E0CE0164
:100190006DE670E09CD0875A9F4FB601A9D0EC0164
:1001A0007EDF0150110999F7CC0FDD1FCC0FDD1F49
:1001B000FA94F110EACF74DF2FEF84E39CE0215032
:1001C00080409040E1F700C0000060E080E079DF0F
:1001D00061DFC0E0D4E08C2F62DF2197E1F760DFC0
:1001E0002FEF84E39CE0215080409040E1F700C075
:1001F0000000C8E0DFEFD6958D2F809576DFC150E7
:10020000D1F72FEF84E39CE0215080409040E1F74C
:1002100000C000008AEA69DF2FEF84E39CE02150F0
:1002200080409040E1F700C0000020E04FEF60E028
:100230008FEF6DDF2FEF84E39CE0215080409040F2
:10024000E1F700C000002AEA45E56AEA85E55FDFDC
:100250002FEF84E39CE0215080409040E1F700C004
:10026000000023E343E36CEC8CEC51DF2FEF84E3DD
:100270009CE0215080409040E1F700C0000023E066
:100280004CE060E380EC43DF2FEF84E39CE02150FF
:1002900080409040E1F700C000002CE043E060ECBB
:1002A00080E335DF2FEF84E39CE0215080409040D5
:1002B000E1F700C000008FEF18DF2FEF84E39CE030
:1002C000215080409040E1F700C0000054CF00244E
:1002D000552704C0080E591F880F991F009729F051
:1002E00076956795B8F37105B9F7802D952F089528
:1002F000AA1BBB1B51E107C0AA1FBB1FA617B7074C
:1003000010F0A61BB70B881F991F5A95A9F7809567
:0C0310009095BC01CD010895F894FFCF3A
:00000001FF
