:100000001EC025C024C023C022C021C020C01FC0E4
:100010001EC01DC01CC01BC01AC019C018C0AED560
:10002000F0A83FD300408D142000A1C8DA12813F10
:10003000D922DB20A4A62EAF22003F21007F11246D
:100040001FBECFE5D2E0DEBFCDBF82D07AC1D8CF10
:10005000B89ABA9AC29AC09AC098C2980895C2989B
:10006000C098C29AC09AB898089520E030E090E015
:10007000AC01022E01C0440F0A94EAF747FF02C008
:10008000C09A01C0C098C29AC2982F5F3F4F2830D3
:10009000310571F7C09AC29AC2980895D9DF88E7EE
:1000A000E4DF80E0E2CFD4DF88E7DFDF80E4DDCF8C
:1000B000DCCFD5CF1F93CF93DF93F0DFCEE1D0E03D
:1000C0001C2F105EFE018491D0DF21961C13FACF05
:1000D000DF91CF911F91C3CF1F93CF93DF931F92D7
:1000E000CDB7DEB7182F6983D9DF6981862F877076
:1000F000806BBBDF812F8F70B8DF812F82958F706F
:100100008061B3DF0F90DF91CF911F91A8CFEF9265
:10011000FF920F931F93CF93DF93E82EF62E042FB9
:10012000122F60E080E0D8DFBEDFC0E0D1E08E2D8E
:100130009CDF8F2D9ADF802F98DF812F96DF21970C
:10014000B1F7DF91CF911F910F91FF90EF9087CF83
:10015000CF93DF931F92CDB7DEB7F89480E886BDCA
:1001600016BC78942FEF89EF90E0215080409040AA
:10017000E1F700C000009EDF09E012E020E040E06F
:1001800060E080E0C4DF60E080E0A6DF8CDFC12CAF
:1001900094E0D92E24E6F22E90E08F2D6DE670E0EB
:1001A000ABD0875A9F4FB801B8D0F82E998380DF23
:1001B00021E0C21AD1089981C114D10471F779DF05
:1001C0008FEF94E32CE0815090402040E1F700C095
:1001D000000060E080E080DF66DFC12CD12C8C2D38
:1001E00067DF8FEFC81AD80AC11494E0D906B9F7AF
:1001F00060DF2FEF84E39CE0215080409040E1F7E6
:1002000000C0000088E0F82EDD24DA94D6948D2D0D
:100210008095282F482F682F7ADFFA94F110F6CFB7
:100220002FEF84E39CE0215080409040E1F700C034
:1002300000002AEA4AEA6AEA8AEA69DF2FEF84E3E1
:100240009CE0215080409040E1F700C0000020E099
:100250004FEF60E08FEF5BDF2FEF84E39CE02150F6
:1002600080409040E1F700C000002AEA45E56AEAD4
:1002700085E54DDF2FEF84E39CE0215080409040E6
:10028000E1F700C0000023E343E36CEC8CEC3FDFBC
:100290002FEF84E39CE0215080409040E1F700C0C4
:1002A000000023E04CE060E380EC31DF2FEF84E3DB
:1002B0009CE0215080409040E1F700C000002CE01D
:1002C00043E060EC80E323DF2FEF84E39CE02150E8
:1002D00080409040E1F700C000002FEF4FEF6FEF3C
:1002E0008FEF15DF2FEF84E39CE02150804090409A
:1002F000E1F700C0000042CF0024552704C0080EDB
:10030000591F880F991F009729F076956795B8F3C4
:100310007105B9F7802D952F0895AA1BBB1B51E1DC
:1003200007C0AA1FBB1FA617B70710F0A61BB70B65
:10033000881F991F5A95A9F780959095BC01CD010A
:060340000895F894FFCFC0
:00000001FF
